{
  "_format": "hh-sol-artifact-1",
  "contractName": "HealthDataSharing",
  "sourceName": "contracts/smartHealth.sol",
  "abi": [
    {
      "anonymous": false,
      "inputs": [
        {
          "indexed": false,
          "internalType": "address",
          "name": "patient",
          "type": "address"
        },
        {
          "indexed": false,
          "internalType": "address",
          "name": "familyMember",
          "type": "address"
        }
      ],
      "name": "FamilyMemberAdded",
      "type": "event"
    },
    {
      "anonymous": false,
      "inputs": [
        {
          "indexed": false,
          "internalType": "address",
          "name": "patient",
          "type": "address"
        },
        {
          "indexed": false,
          "internalType": "address",
          "name": "familyMember",
          "type": "address"
        },
        {
          "indexed": false,
          "internalType": "string",
          "name": "message",
          "type": "string"
        }
      ],
      "name": "FamilyMemberNotified",
      "type": "event"
    },
    {
      "anonymous": false,
      "inputs": [
        {
          "indexed": false,
          "internalType": "address",
          "name": "familyMember",
          "type": "address"
        },
        {
          "indexed": false,
          "internalType": "string",
          "name": "name",
          "type": "string"
        }
      ],
      "name": "FamilyMemberRegistered",
      "type": "event"
    },
    {
      "anonymous": false,
      "inputs": [
        {
          "indexed": false,
          "internalType": "address",
          "name": "patient",
          "type": "address"
        },
        {
          "indexed": false,
          "internalType": "address",
          "name": "familyMember",
          "type": "address"
        }
      ],
      "name": "FamilyMemberRemoved",
      "type": "event"
    },
    {
      "anonymous": false,
      "inputs": [
        {
          "indexed": false,
          "internalType": "address",
          "name": "expert",
          "type": "address"
        },
        {
          "indexed": false,
          "internalType": "string",
          "name": "data",
          "type": "string"
        }
      ],
      "name": "HealthDataReceived",
      "type": "event"
    },
    {
      "anonymous": false,
      "inputs": [
        {
          "indexed": false,
          "internalType": "address",
          "name": "patient",
          "type": "address"
        }
      ],
      "name": "HealthDataRequest",
      "type": "event"
    },
    {
      "anonymous": false,
      "inputs": [
        {
          "indexed": false,
          "internalType": "address",
          "name": "patient",
          "type": "address"
        },
        {
          "indexed": false,
          "internalType": "string",
          "name": "data",
          "type": "string"
        }
      ],
      "name": "HealthDataSent",
      "type": "event"
    },
    {
      "anonymous": false,
      "inputs": [
        {
          "indexed": false,
          "internalType": "address",
          "name": "expert",
          "type": "address"
        },
        {
          "indexed": false,
          "internalType": "address",
          "name": "patient",
          "type": "address"
        },
        {
          "indexed": false,
          "internalType": "address",
          "name": "researchInstitute",
          "type": "address"
        },
        {
          "indexed": false,
          "internalType": "string",
          "name": "data",
          "type": "string"
        }
      ],
      "name": "HealthDataSentToRI",
      "type": "event"
    },
    {
      "anonymous": false,
      "inputs": [
        {
          "indexed": false,
          "internalType": "address",
          "name": "patient",
          "type": "address"
        },
        {
          "indexed": false,
          "internalType": "address",
          "name": "expert",
          "type": "address"
        }
      ],
      "name": "HealthcareExpertAdded",
      "type": "event"
    },
    {
      "anonymous": false,
      "inputs": [
        {
          "indexed": false,
          "internalType": "address",
          "name": "expert",
          "type": "address"
        },
        {
          "indexed": false,
          "internalType": "string",
          "name": "name",
          "type": "string"
        },
        {
          "indexed": false,
          "internalType": "string",
          "name": "specialization",
          "type": "string"
        },
        {
          "indexed": false,
          "internalType": "uint256",
          "name": "yearsOfExperience",
          "type": "uint256"
        }
      ],
      "name": "HealthcareExpertRegistered",
      "type": "event"
    },
    {
      "anonymous": false,
      "inputs": [
        {
          "indexed": false,
          "internalType": "address",
          "name": "patient",
          "type": "address"
        },
        {
          "indexed": false,
          "internalType": "address",
          "name": "expert",
          "type": "address"
        }
      ],
      "name": "HealthcareExpertRemoved",
      "type": "event"
    },
    {
      "anonymous": false,
      "inputs": [
        {
          "indexed": false,
          "internalType": "address",
          "name": "expert",
          "type": "address"
        },
        {
          "indexed": false,
          "internalType": "address",
          "name": "patient",
          "type": "address"
        },
        {
          "indexed": false,
          "internalType": "string",
          "name": "message",
          "type": "string"
        }
      ],
      "name": "MessageSent",
      "type": "event"
    },
    {
      "anonymous": false,
      "inputs": [
        {
          "indexed": false,
          "internalType": "address",
          "name": "patient",
          "type": "address"
        },
        {
          "indexed": false,
          "internalType": "bool",
          "name": "consent",
          "type": "bool"
        }
      ],
      "name": "PatientConsentToRI",
      "type": "event"
    },
    {
      "anonymous": false,
      "inputs": [
        {
          "indexed": false,
          "internalType": "address",
          "name": "patient",
          "type": "address"
        }
      ],
      "name": "PatientRegistered",
      "type": "event"
    },
    {
      "anonymous": false,
      "inputs": [
        {
          "indexed": false,
          "internalType": "address",
          "name": "patient",
          "type": "address"
        },
        {
          "indexed": false,
          "internalType": "uint256",
          "name": "amount",
          "type": "uint256"
        }
      ],
      "name": "PatientRewarded",
      "type": "event"
    },
    {
      "anonymous": false,
      "inputs": [
        {
          "indexed": false,
          "internalType": "address",
          "name": "institute",
          "type": "address"
        },
        {
          "indexed": false,
          "internalType": "string",
          "name": "name",
          "type": "string"
        }
      ],
      "name": "ResearchInstituteRegistered",
      "type": "event"
    },
    {
      "inputs": [
        {
          "internalType": "address",
          "name": "familyMember",
          "type": "address"
        }
      ],
      "name": "addFamilyMember",
      "outputs": [],
      "stateMutability": "nonpayable",
      "type": "function"
    },
    {
      "inputs": [
        {
          "internalType": "address",
          "name": "expert",
          "type": "address"
        }
      ],
      "name": "addHealthcareExpert",
      "outputs": [],
      "stateMutability": "nonpayable",
      "type": "function"
    },
    {
      "inputs": [],
      "name": "checkHealthDataTime",
      "outputs": [],
      "stateMutability": "nonpayable",
      "type": "function"
    },
    {
      "inputs": [
        {
          "internalType": "address",
          "name": "",
          "type": "address"
        }
      ],
      "name": "familyMembers",
      "outputs": [
        {
          "internalType": "string",
          "name": "name",
          "type": "string"
        },
        {
          "internalType": "bool",
          "name": "isRegistered",
          "type": "bool"
        }
      ],
      "stateMutability": "view",
      "type": "function"
    },
    {
      "inputs": [],
      "name": "getHealthcareExpertAddresses",
      "outputs": [
        {
          "internalType": "address[]",
          "name": "",
          "type": "address[]"
        }
      ],
      "stateMutability": "view",
      "type": "function"
    },
    {
      "inputs": [
        {
          "internalType": "address",
          "name": "patient",
          "type": "address"
        }
      ],
      "name": "getLastHealthDataTime",
      "outputs": [
        {
          "internalType": "uint256",
          "name": "",
          "type": "uint256"
        }
      ],
      "stateMutability": "view",
      "type": "function"
    },
    {
      "inputs": [],
      "name": "getPatientAddresses",
      "outputs": [
        {
          "internalType": "address[]",
          "name": "",
          "type": "address[]"
        }
      ],
      "stateMutability": "view",
      "type": "function"
    },
    {
      "inputs": [
        {
          "internalType": "address",
          "name": "patient",
          "type": "address"
        }
      ],
      "name": "getPrivacyScore",
      "outputs": [
        {
          "internalType": "uint256",
          "name": "",
          "type": "uint256"
        }
      ],
      "stateMutability": "view",
      "type": "function"
    },
    {
      "inputs": [],
      "name": "getTotalHealthcareExperts",
      "outputs": [
        {
          "internalType": "uint256",
          "name": "",
          "type": "uint256"
        }
      ],
      "stateMutability": "view",
      "type": "function"
    },
    {
      "inputs": [],
      "name": "getTotalPatients",
      "outputs": [
        {
          "internalType": "uint256",
          "name": "",
          "type": "uint256"
        }
      ],
      "stateMutability": "view",
      "type": "function"
    },
    {
      "inputs": [
        {
          "internalType": "address",
          "name": "",
          "type": "address"
        }
      ],
      "name": "healthcareExperts",
      "outputs": [
        {
          "internalType": "string",
          "name": "name",
          "type": "string"
        },
        {
          "internalType": "string",
          "name": "specialization",
          "type": "string"
        },
        {
          "internalType": "uint256",
          "name": "yearsOfExperience",
          "type": "uint256"
        },
        {
          "internalType": "bool",
          "name": "isRegistered",
          "type": "bool"
        }
      ],
      "stateMutability": "view",
      "type": "function"
    },
    {
      "inputs": [
        {
          "internalType": "address",
          "name": "",
          "type": "address"
        }
      ],
      "name": "lastHealthDataTime",
      "outputs": [
        {
          "internalType": "uint256",
          "name": "",
          "type": "uint256"
        }
      ],
      "stateMutability": "view",
      "type": "function"
    },
    {
      "inputs": [
        {
          "internalType": "address",
          "name": "patient",
          "type": "address"
        }
      ],
      "name": "needsToSendHealthData",
      "outputs": [
        {
          "internalType": "bool",
          "name": "",
          "type": "bool"
        }
      ],
      "stateMutability": "view",
      "type": "function"
    },
    {
      "inputs": [
        {
          "internalType": "address",
          "name": "",
          "type": "address"
        }
      ],
      "name": "patientConsentToRI",
      "outputs": [
        {
          "internalType": "bool",
          "name": "",
          "type": "bool"
        }
      ],
      "stateMutability": "view",
      "type": "function"
    },
    {
      "inputs": [
        {
          "internalType": "address",
          "name": "",
          "type": "address"
        },
        {
          "internalType": "address",
          "name": "",
          "type": "address"
        }
      ],
      "name": "patientExperts",
      "outputs": [
        {
          "internalType": "bool",
          "name": "",
          "type": "bool"
        }
      ],
      "stateMutability": "view",
      "type": "function"
    },
    {
      "inputs": [
        {
          "internalType": "address",
          "name": "",
          "type": "address"
        },
        {
          "internalType": "uint256",
          "name": "",
          "type": "uint256"
        }
      ],
      "name": "patientExpertsList",
      "outputs": [
        {
          "internalType": "address",
          "name": "",
          "type": "address"
        }
      ],
      "stateMutability": "view",
      "type": "function"
    },
    {
      "inputs": [
        {
          "internalType": "address",
          "name": "",
          "type": "address"
        },
        {
          "internalType": "uint256",
          "name": "",
          "type": "uint256"
        }
      ],
      "name": "patientFamilyMembersList",
      "outputs": [
        {
          "internalType": "address",
          "name": "",
          "type": "address"
        }
      ],
      "stateMutability": "view",
      "type": "function"
    },
    {
      "inputs": [
        {
          "internalType": "string",
          "name": "name",
          "type": "string"
        }
      ],
      "name": "registerAsFamilyMember",
      "outputs": [],
      "stateMutability": "nonpayable",
      "type": "function"
    },
    {
      "inputs": [
        {
          "internalType": "string",
          "name": "name",
          "type": "string"
        },
        {
          "internalType": "string",
          "name": "specialization",
          "type": "string"
        },
        {
          "internalType": "uint256",
          "name": "yearsOfExperience",
          "type": "uint256"
        }
      ],
      "name": "registerAsHealthcareExpert",
      "outputs": [],
      "stateMutability": "nonpayable",
      "type": "function"
    },
    {
      "inputs": [],
      "name": "registerAsPatient",
      "outputs": [],
      "stateMutability": "nonpayable",
      "type": "function"
    },
    {
      "inputs": [
        {
          "internalType": "string",
          "name": "name",
          "type": "string"
        }
      ],
      "name": "registerAsResearchInstitute",
      "outputs": [],
      "stateMutability": "nonpayable",
      "type": "function"
    },
    {
      "inputs": [
        {
          "internalType": "address",
          "name": "",
          "type": "address"
        }
      ],
      "name": "registeredPatients",
      "outputs": [
        {
          "internalType": "bool",
          "name": "",
          "type": "bool"
        }
      ],
      "stateMutability": "view",
      "type": "function"
    },
    {
      "inputs": [
        {
          "internalType": "address",
          "name": "familyMember",
          "type": "address"
        }
      ],
      "name": "removeFamilyMember",
      "outputs": [],
      "stateMutability": "nonpayable",
      "type": "function"
    },
    {
      "inputs": [
        {
          "internalType": "address",
          "name": "expert",
          "type": "address"
        }
      ],
      "name": "removeHealthcareExpert",
      "outputs": [],
      "stateMutability": "nonpayable",
      "type": "function"
    },
    {
      "inputs": [
        {
          "internalType": "address",
          "name": "",
          "type": "address"
        }
      ],
      "name": "researchInstitutes",
      "outputs": [
        {
          "internalType": "string",
          "name": "name",
          "type": "string"
        },
        {
          "internalType": "bool",
          "name": "isRegistered",
          "type": "bool"
        }
      ],
      "stateMutability": "view",
      "type": "function"
    },
    {
      "inputs": [
        {
          "internalType": "address",
          "name": "patient",
          "type": "address"
        }
      ],
      "name": "rewardPatient",
      "outputs": [],
      "stateMutability": "payable",
      "type": "function"
    },
    {
      "inputs": [
        {
          "internalType": "string",
          "name": "data",
          "type": "string"
        }
      ],
      "name": "sendHealthData",
      "outputs": [],
      "stateMutability": "nonpayable",
      "type": "function"
    },
    {
      "inputs": [
        {
          "internalType": "address",
          "name": "patient",
          "type": "address"
        },
        {
          "internalType": "address",
          "name": "researchInstitute",
          "type": "address"
        },
        {
          "internalType": "string",
          "name": "data",
          "type": "string"
        }
      ],
      "name": "sendHealthDataToRI",
      "outputs": [],
      "stateMutability": "nonpayable",
      "type": "function"
    },
    {
      "inputs": [
        {
          "internalType": "address",
          "name": "patient",
          "type": "address"
        },
        {
          "internalType": "string",
          "name": "message",
          "type": "string"
        }
      ],
      "name": "sendMessageToPatient",
      "outputs": [],
      "stateMutability": "nonpayable",
      "type": "function"
    },
    {
      "inputs": [
        {
          "internalType": "bool",
          "name": "consent",
          "type": "bool"
        }
      ],
      "name": "setConsentToRI",
      "outputs": [],
      "stateMutability": "nonpayable",
      "type": "function"
    },
    {
      "inputs": [],
      "name": "viewNotifications",
      "outputs": [
        {
          "internalType": "string[]",
          "name": "",
          "type": "string[]"
        }
      ],
      "stateMutability": "view",
      "type": "function"
    }
  ],
  "bytecode": "0x608060405234801561001057600080fd5b50614c71806100206000396000f3fe6080604052600436106101d85760003560e01c8063641f3da911610102578063b5c884f011610095578063ddfcb6f811610064578063ddfcb6f8146106e8578063e40fb5b514610711578063f20648db1461074e578063f497e18914610777576101d8565b8063b5c884f014610604578063ba19823f1461062d578063c811242b1461066b578063ccb7702a146106a8576101d8565b80639cdaaad8116100d15780639cdaaad814610549578063a08c0df314610586578063a99ad4ee146105c4578063ab39f86c146105db576101d8565b8063641f3da91461047b57806365c55fd4146104b857806366329139146104e1578063824c5cfb1461050c576101d8565b80633b86e9b21161017a5780635026176e116101495780635026176e146103ad57806359843b29146103ea5780635d3893f5146104135780635df880271461043e576101d8565b80633b86e9b2146103265780633bd815951461034257806347947e1e146103595780634ee96f4314610382576101d8565b80631fce4501116101b65780631fce45011461025a5780632c2956f614610297578063308d8f87146102d4578063330658ed146102fd576101d8565b80630342da8a146101dd57806305ec4e711461020657806307c4d43e14610231575b600080fd5b3480156101e957600080fd5b5061020460048036038101906101ff919061344c565b6107a2565b005b34801561021257600080fd5b5061021b610a71565b60405161022891906135cb565b60405180910390f35b34801561023d57600080fd5b5061025860048036038101906102539190613722565b610d67565b005b34801561026657600080fd5b50610281600480360381019061027c91906137a1565b611195565b60405161028e91906137f0565b60405180910390f35b3480156102a357600080fd5b506102be60048036038101906102b9919061344c565b6111e3565b6040516102cb919061381a565b60405180910390f35b3480156102e057600080fd5b506102fb60048036038101906102f6919061344c565b61122c565b005b34801561030957600080fd5b50610324600480360381019061031f919061344c565b611423565b005b610340600480360381019061033b919061344c565b611814565b005b34801561034e57600080fd5b50610357611aa4565b005b34801561036557600080fd5b50610380600480360381019061037b9190613835565b611b9f565b005b34801561038e57600080fd5b50610397611d8e565b6040516103a4919061397e565b60405180910390f35b3480156103b957600080fd5b506103d460048036038101906103cf91906139a0565b611e1c565b6040516103e191906139fb565b60405180910390f35b3480156103f657600080fd5b50610411600480360381019061040c919061344c565b611e4b565b005b34801561041f57600080fd5b506104286121a0565b604051610435919061381a565b60405180910390f35b34801561044a57600080fd5b50610465600480360381019061046091906137a1565b6121ad565b60405161047291906137f0565b60405180910390f35b34801561048757600080fd5b506104a2600480360381019061049d919061344c565b6121fb565b6040516104af91906139fb565b60405180910390f35b3480156104c457600080fd5b506104df60048036038101906104da9190613a42565b61221b565b005b3480156104ed57600080fd5b506104f661233a565b604051610503919061397e565b60405180910390f35b34801561051857600080fd5b50610533600480360381019061052e919061344c565b6123c8565b604051610540919061381a565b60405180910390f35b34801561055557600080fd5b50610570600480360381019061056b919061344c565b6123e0565b60405161057d91906139fb565b60405180910390f35b34801561059257600080fd5b506105ad60048036038101906105a8919061344c565b612400565b6040516105bb929190613ab9565b60405180910390f35b3480156105d057600080fd5b506105d96124b9565b005b3480156105e757600080fd5b5061060260048036038101906105fd9190613ae9565b612639565b005b34801561061057600080fd5b5061062b60048036038101906106269190613722565b6128ed565b005b34801561063957600080fd5b50610654600480360381019061064f919061344c565b612aac565b604051610662929190613ab9565b60405180910390f35b34801561067757600080fd5b50610692600480360381019061068d919061344c565b612b65565b60405161069f919061381a565b60405180910390f35b3480156106b457600080fd5b506106cf60048036038101906106ca919061344c565b612cd9565b6040516106df9493929190613b58565b60405180910390f35b3480156106f457600080fd5b5061070f600480360381019061070a9190613722565b612e26565b005b34801561071d57600080fd5b506107386004803603810190610733919061344c565b612fe5565b60405161074591906139fb565b60405180910390f35b34801561075a57600080fd5b5061077560048036038101906107709190613bab565b613043565b005b34801561078357600080fd5b5061078c6133cd565b604051610799919061381a565b60405180910390f35b600160003373ffffffffffffffffffffffffffffffffffffffff1673ffffffffffffffffffffffffffffffffffffffff16815260200190815260200160002060009054906101000a900460ff1661082e576040517f08c379a000000000000000000000000000000000000000000000000000000000815260040161082590613c79565b60405180910390fd5b6000600660003373ffffffffffffffffffffffffffffffffffffffff1673ffffffffffffffffffffffffffffffffffffffff168152602001908152602001600020905060005b8180549050811015610a32578273ffffffffffffffffffffffffffffffffffffffff168282815481106108aa576108a9613c99565b5b9060005260206000200160009054906101000a900473ffffffffffffffffffffffffffffffffffffffff1673ffffffffffffffffffffffffffffffffffffffff1603610a1f5781600183805490506109029190613cf7565b8154811061091357610912613c99565b5b9060005260206000200160009054906101000a900473ffffffffffffffffffffffffffffffffffffffff1682828154811061095157610950613c99565b5b9060005260206000200160006101000a81548173ffffffffffffffffffffffffffffffffffffffff021916908373ffffffffffffffffffffffffffffffffffffffff160217905550818054806109aa576109a9613d2b565b5b6001900381819060005260206000200160006101000a81549073ffffffffffffffffffffffffffffffffffffffff021916905590557fc45fcdc5067ef418adb26b71a908432c57ba90db4babe36366f19ad11f8bd7e53384604051610a10929190613d5a565b60405180910390a15050610a6e565b8080610a2a90613d83565b915050610874565b506040517f08c379a0000000000000000000000000000000000000000000000000000000008152600401610a6590613e17565b60405180910390fd5b50565b6060600160003373ffffffffffffffffffffffffffffffffffffffff1673ffffffffffffffffffffffffffffffffffffffff16815260200190815260200160002060009054906101000a900460ff16610aff576040517f08c379a0000000000000000000000000000000000000000000000000000000008152600401610af690613c79565b60405180910390fd5b6000600760003373ffffffffffffffffffffffffffffffffffffffff1673ffffffffffffffffffffffffffffffffffffffff168152602001908152602001600020805480602002602001604051908101604052809291908181526020016000905b82821015610c0c578382906000526020600020018054610b7f90613e66565b80601f0160208091040260200160405190810160405280929190818152602001828054610bab90613e66565b8015610bf85780601f10610bcd57610100808354040283529160200191610bf8565b820191906000526020600020905b815481529060010190602001808311610bdb57829003601f168201915b505050505081526020019060010190610b60565b505050509050610e10600860003373ffffffffffffffffffffffffffffffffffffffff1673ffffffffffffffffffffffffffffffffffffffff16815260200190815260200160002054610c5f9190613e97565b4210610d5f57600060018251610c759190613e97565b67ffffffffffffffff811115610c8e57610c8d6135f7565b5b604051908082528060200260200182016040528015610cc157816020015b6060815260200190600190039081610cac5790505b50905060005b8251811015610d1c57828181518110610ce357610ce2613c99565b5b6020026020010151828281518110610cfe57610cfd613c99565b5b60200260200101819052508080610d1490613d83565b915050610cc7565b50604051806060016040528060278152602001614c156027913981835181518110610d4a57610d49613c99565b5b60200260200101819052508092505050610d64565b809150505b90565b600160003373ffffffffffffffffffffffffffffffffffffffff1673ffffffffffffffffffffffffffffffffffffffff16815260200190815260200160002060009054906101000a900460ff16610df3576040517f08c379a0000000000000000000000000000000000000000000000000000000008152600401610dea90613c79565b60405180910390fd5b42600860003373ffffffffffffffffffffffffffffffffffffffff1673ffffffffffffffffffffffffffffffffffffffff168152602001908152602001600020819055507f64695f99da652f80ca507cfe5db583bae45a6e33d9de8302e10e26ce401b75233382604051610e68929190613ecb565b60405180910390a16000600460003373ffffffffffffffffffffffffffffffffffffffff1673ffffffffffffffffffffffffffffffffffffffff168152602001908152602001600020805480602002602001604051908101604052809291908181526020018280548015610f3157602002820191906000526020600020905b8160009054906101000a900473ffffffffffffffffffffffffffffffffffffffff1673ffffffffffffffffffffffffffffffffffffffff1681526020019060010190808311610ee7575b5050505050905060005b815181101561105457600560003373ffffffffffffffffffffffffffffffffffffffff1673ffffffffffffffffffffffffffffffffffffffff1681526020019081526020016000206000838381518110610f9857610f97613c99565b5b602002602001015173ffffffffffffffffffffffffffffffffffffffff1673ffffffffffffffffffffffffffffffffffffffff16815260200190815260200160002060009054906101000a900460ff1615611041577faece666aedcf6d97b261e24f58ddff41b82c9aff3169fb065540d81c04e5c07982828151811061102157611020613c99565b5b602002602001015184604051611038929190613ecb565b60405180910390a15b808061104c90613d83565b915050610f3b565b506000600660003373ffffffffffffffffffffffffffffffffffffffff1673ffffffffffffffffffffffffffffffffffffffff16815260200190815260200160002080548060200260200160405190810160405280929190818152602001828054801561111657602002820191906000526020600020905b8160009054906101000a900473ffffffffffffffffffffffffffffffffffffffff1673ffffffffffffffffffffffffffffffffffffffff16815260200190600101908083116110cc575b5050505050905060005b815181101561118f577f2ce302443df202e755c7cfe3a081b971183cf4eb1504cb836eb256562e6275bb3383838151811061115e5761115d613c99565b5b6020026020010151604051611174929190613f47565b60405180910390a1808061118790613d83565b915050611120565b50505050565b600460205281600052604060002081815481106111b157600080fd5b906000526020600020016000915091509054906101000a900473ffffffffffffffffffffffffffffffffffffffff1681565b6000600860008373ffffffffffffffffffffffffffffffffffffffff1673ffffffffffffffffffffffffffffffffffffffff168152602001908152602001600020549050919050565b600160003373ffffffffffffffffffffffffffffffffffffffff1673ffffffffffffffffffffffffffffffffffffffff16815260200190815260200160002060009054906101000a900460ff166112b8576040517f08c379a00000000000000000000000000000000000000000000000000000000081526004016112af90613c79565b60405180910390fd5b600360008273ffffffffffffffffffffffffffffffffffffffff1673ffffffffffffffffffffffffffffffffffffffff16815260200190815260200160002060010160009054906101000a900460ff16611347576040517f08c379a000000000000000000000000000000000000000000000000000000000815260040161133e90613fcf565b60405180910390fd5b600660003373ffffffffffffffffffffffffffffffffffffffff1673ffffffffffffffffffffffffffffffffffffffff168152602001908152602001600020819080600181540180825580915050600190039060005260206000200160009091909190916101000a81548173ffffffffffffffffffffffffffffffffffffffff021916908373ffffffffffffffffffffffffffffffffffffffff1602179055507fb0bcd3daf019d0ab7199601d3a2f36f0c72cef9b8f5fd043d2c51e584150ab8f3382604051611418929190613d5a565b60405180910390a150565b600160003373ffffffffffffffffffffffffffffffffffffffff1673ffffffffffffffffffffffffffffffffffffffff16815260200190815260200160002060009054906101000a900460ff166114af576040517f08c379a00000000000000000000000000000000000000000000000000000000081526004016114a690613c79565b60405180910390fd5b600560003373ffffffffffffffffffffffffffffffffffffffff1673ffffffffffffffffffffffffffffffffffffffff16815260200190815260200160002060008273ffffffffffffffffffffffffffffffffffffffff1673ffffffffffffffffffffffffffffffffffffffff16815260200190815260200160002060009054906101000a900460ff16611578576040517f08c379a000000000000000000000000000000000000000000000000000000000815260040161156f90614061565b60405180910390fd5b6000600560003373ffffffffffffffffffffffffffffffffffffffff1673ffffffffffffffffffffffffffffffffffffffff16815260200190815260200160002060008373ffffffffffffffffffffffffffffffffffffffff1673ffffffffffffffffffffffffffffffffffffffff16815260200190815260200160002060006101000a81548160ff0219169083151502179055506000600460003373ffffffffffffffffffffffffffffffffffffffff1673ffffffffffffffffffffffffffffffffffffffff168152602001908152602001600020905060005b81805490508110156117d6578273ffffffffffffffffffffffffffffffffffffffff1682828154811061168957611688613c99565b5b9060005260206000200160009054906101000a900473ffffffffffffffffffffffffffffffffffffffff1673ffffffffffffffffffffffffffffffffffffffff16036117c35781600183805490506116e19190613cf7565b815481106116f2576116f1613c99565b5b9060005260206000200160009054906101000a900473ffffffffffffffffffffffffffffffffffffffff168282815481106117305761172f613c99565b5b9060005260206000200160006101000a81548173ffffffffffffffffffffffffffffffffffffffff021916908373ffffffffffffffffffffffffffffffffffffffff1602179055508180548061178957611788613d2b565b5b6001900381819060005260206000200160006101000a81549073ffffffffffffffffffffffffffffffffffffffff021916905590556117d6565b80806117ce90613d83565b915050611653565b507f741778a9d3ce68d849d8274f8496c83675c0f95130e91b7a35c22a629d36892d3383604051611808929190613d5a565b60405180910390a15050565b600260003373ffffffffffffffffffffffffffffffffffffffff1673ffffffffffffffffffffffffffffffffffffffff16815260200190815260200160002060010160009054906101000a900460ff166118a3576040517f08c379a000000000000000000000000000000000000000000000000000000000815260040161189a906140f3565b60405180910390fd5b600960008273ffffffffffffffffffffffffffffffffffffffff1673ffffffffffffffffffffffffffffffffffffffff16815260200190815260200160002060009054906101000a900460ff1661192f576040517f08c379a000000000000000000000000000000000000000000000000000000000815260040161192690614185565b60405180910390fd5b600160008273ffffffffffffffffffffffffffffffffffffffff1673ffffffffffffffffffffffffffffffffffffffff16815260200190815260200160002060009054906101000a900460ff166119bb576040517f08c379a00000000000000000000000000000000000000000000000000000000081526004016119b2906141f1565b60405180910390fd5b60008173ffffffffffffffffffffffffffffffffffffffff16346040516119e190614242565b60006040518083038185875af1925050503d8060008114611a1e576040519150601f19603f3d011682016040523d82523d6000602084013e611a23565b606091505b5050905080611a67576040517f08c379a0000000000000000000000000000000000000000000000000000000008152600401611a5e906142a3565b60405180910390fd5b7fce0c480ee45d4fe2b82701624641e6421c22a1403b8162bb0c519de360fc23758234604051611a989291906142c3565b60405180910390a15050565b600042905060005b600a80549050811015611b9b576000600a8281548110611acf57611ace613c99565b5b9060005260206000200160009054906101000a900473ffffffffffffffffffffffffffffffffffffffff169050610e10600860008373ffffffffffffffffffffffffffffffffffffffff1673ffffffffffffffffffffffffffffffffffffffff16815260200190815260200160002054611b499190613e97565b8310611b87577fbd8cbc9028c8d68791e8c0b74fe48f23e79fd1b4d8c03de93cbf9274a23db6e481604051611b7e91906137f0565b60405180910390a15b508080611b9390613d83565b915050611aac565b5050565b6000803373ffffffffffffffffffffffffffffffffffffffff1673ffffffffffffffffffffffffffffffffffffffff16815260200190815260200160002060030160009054906101000a900460ff1615611c2e576040517f08c379a0000000000000000000000000000000000000000000000000000000008152600401611c2590614338565b60405180910390fd5b6040518060800160405280848152602001838152602001828152602001600115158152506000803373ffffffffffffffffffffffffffffffffffffffff1673ffffffffffffffffffffffffffffffffffffffff1681526020019081526020016000206000820151816000019081611ca59190614504565b506020820151816001019081611cbb9190614504565b506040820151816002015560608201518160030160006101000a81548160ff021916908315150217905550905050600b339080600181540180825580915050600190039060005260206000200160009091909190916101000a81548173ffffffffffffffffffffffffffffffffffffffff021916908373ffffffffffffffffffffffffffffffffffffffff1602179055507fc5b0ab902c21167992aeb93dc9b2aa5e9524f0310634ea9447c68b0951b9c12833848484604051611d8194939291906145d6565b60405180910390a1505050565b6060600b805480602002602001604051908101604052809291908181526020018280548015611e1257602002820191906000526020600020905b8160009054906101000a900473ffffffffffffffffffffffffffffffffffffffff1673ffffffffffffffffffffffffffffffffffffffff1681526020019060010190808311611dc8575b5050505050905090565b60056020528160005260406000206020528060005260406000206000915091509054906101000a900460ff1681565b600160003373ffffffffffffffffffffffffffffffffffffffff1673ffffffffffffffffffffffffffffffffffffffff16815260200190815260200160002060009054906101000a900460ff16611ed7576040517f08c379a0000000000000000000000000000000000000000000000000000000008152600401611ece90613c79565b60405180910390fd5b6000808273ffffffffffffffffffffffffffffffffffffffff1673ffffffffffffffffffffffffffffffffffffffff16815260200190815260200160002060030160009054906101000a900460ff16611f65576040517f08c379a0000000000000000000000000000000000000000000000000000000008152600401611f5c90614675565b60405180910390fd5b600560003373ffffffffffffffffffffffffffffffffffffffff1673ffffffffffffffffffffffffffffffffffffffff16815260200190815260200160002060008273ffffffffffffffffffffffffffffffffffffffff1673ffffffffffffffffffffffffffffffffffffffff16815260200190815260200160002060009054906101000a900460ff161561202f576040517f08c379a0000000000000000000000000000000000000000000000000000000008152600401612026906146e1565b60405180910390fd5b6001600560003373ffffffffffffffffffffffffffffffffffffffff1673ffffffffffffffffffffffffffffffffffffffff16815260200190815260200160002060008373ffffffffffffffffffffffffffffffffffffffff1673ffffffffffffffffffffffffffffffffffffffff16815260200190815260200160002060006101000a81548160ff021916908315150217905550600460003373ffffffffffffffffffffffffffffffffffffffff1673ffffffffffffffffffffffffffffffffffffffff168152602001908152602001600020819080600181540180825580915050600190039060005260206000200160009091909190916101000a81548173ffffffffffffffffffffffffffffffffffffffff021916908373ffffffffffffffffffffffffffffffffffffffff1602179055507fabc5292fd2d6df651bd776b6ed9050ce1aee3a13bb37b6ad7033de05e93d10bc3382604051612195929190613d5a565b60405180910390a150565b6000600b80549050905090565b600660205281600052604060002081815481106121c957600080fd5b906000526020600020016000915091509054906101000a900473ffffffffffffffffffffffffffffffffffffffff1681565b60096020528060005260406000206000915054906101000a900460ff1681565b600160003373ffffffffffffffffffffffffffffffffffffffff1673ffffffffffffffffffffffffffffffffffffffff16815260200190815260200160002060009054906101000a900460ff166122a7576040517f08c379a000000000000000000000000000000000000000000000000000000000815260040161229e90613c79565b60405180910390fd5b80600960003373ffffffffffffffffffffffffffffffffffffffff1673ffffffffffffffffffffffffffffffffffffffff16815260200190815260200160002060006101000a81548160ff0219169083151502179055507ffa7e8167c6e55c6f92900d0372afb3f627ca276577547d719546e0c04155a7a6338260405161232f929190614701565b60405180910390a150565b6060600a8054806020026020016040519081016040528092919081815260200182805480156123be57602002820191906000526020600020905b8160009054906101000a900473ffffffffffffffffffffffffffffffffffffffff1673ffffffffffffffffffffffffffffffffffffffff1681526020019060010190808311612374575b5050505050905090565b60086020528060005260406000206000915090505481565b60016020528060005260406000206000915054906101000a900460ff1681565b600360205280600052604060002060009150905080600001805461242390613e66565b80601f016020809104026020016040519081016040528092919081815260200182805461244f90613e66565b801561249c5780601f106124715761010080835404028352916020019161249c565b820191906000526020600020905b81548152906001019060200180831161247f57829003601f168201915b5050505050908060010160009054906101000a900460ff16905082565b600160003373ffffffffffffffffffffffffffffffffffffffff1673ffffffffffffffffffffffffffffffffffffffff16815260200190815260200160002060009054906101000a900460ff1615612546576040517f08c379a000000000000000000000000000000000000000000000000000000000815260040161253d90614776565b60405180910390fd5b60018060003373ffffffffffffffffffffffffffffffffffffffff1673ffffffffffffffffffffffffffffffffffffffff16815260200190815260200160002060006101000a81548160ff021916908315150217905550600a339080600181540180825580915050600190039060005260206000200160009091909190916101000a81548173ffffffffffffffffffffffffffffffffffffffff021916908373ffffffffffffffffffffffffffffffffffffffff1602179055507fc9fa2003fca4ce0dfc8cb0deae32266b715536df6685365b05b5be96ede8e49c3360405161262f91906137f0565b60405180910390a1565b6000803373ffffffffffffffffffffffffffffffffffffffff1673ffffffffffffffffffffffffffffffffffffffff16815260200190815260200160002060030160009054906101000a900460ff166126c7576040517f08c379a00000000000000000000000000000000000000000000000000000000081526004016126be90614808565b60405180910390fd5b600960008473ffffffffffffffffffffffffffffffffffffffff1673ffffffffffffffffffffffffffffffffffffffff16815260200190815260200160002060009054906101000a900460ff16612753576040517f08c379a000000000000000000000000000000000000000000000000000000000815260040161274a90614185565b60405180910390fd5b600560008473ffffffffffffffffffffffffffffffffffffffff1673ffffffffffffffffffffffffffffffffffffffff16815260200190815260200160002060003373ffffffffffffffffffffffffffffffffffffffff1673ffffffffffffffffffffffffffffffffffffffff16815260200190815260200160002060009054906101000a900460ff1661281c576040517f08c379a00000000000000000000000000000000000000000000000000000000081526004016128139061489a565b60405180910390fd5b600260008373ffffffffffffffffffffffffffffffffffffffff1673ffffffffffffffffffffffffffffffffffffffff16815260200190815260200160002060010160009054906101000a900460ff166128ab576040517f08c379a00000000000000000000000000000000000000000000000000000000081526004016128a29061492c565b60405180910390fd5b7f98d707db412eebdfef3aab5f9a0f811ce67134af0da2b6647811afc360b17e02338484846040516128e0949392919061494c565b60405180910390a1505050565b600360003373ffffffffffffffffffffffffffffffffffffffff1673ffffffffffffffffffffffffffffffffffffffff16815260200190815260200160002060010160009054906101000a900460ff161561297d576040517f08c379a000000000000000000000000000000000000000000000000000000000815260040161297490614a0a565b60405180910390fd5b604051806040016040528082815260200160011515815250600360003373ffffffffffffffffffffffffffffffffffffffff1673ffffffffffffffffffffffffffffffffffffffff16815260200190815260200160002060008201518160000190816129e99190614504565b5060208201518160010160006101000a81548160ff021916908315150217905550905050600d339080600181540180825580915050600190039060005260206000200160009091909190916101000a81548173ffffffffffffffffffffffffffffffffffffffff021916908373ffffffffffffffffffffffffffffffffffffffff1602179055507f5d24cf61124f2cced6e1ded98826725ffd4a374a2722f5c358b18f7706c991c03382604051612aa1929190613ecb565b60405180910390a150565b6002602052806000526040600020600091509050806000018054612acf90613e66565b80601f0160208091040260200160405190810160405280929190818152602001828054612afb90613e66565b8015612b485780601f10612b1d57610100808354040283529160200191612b48565b820191906000526020600020905b815481529060010190602001808311612b2b57829003601f168201915b5050505050908060010160009054906101000a900460ff16905082565b6000600160008373ffffffffffffffffffffffffffffffffffffffff1673ffffffffffffffffffffffffffffffffffffffff16815260200190815260200160002060009054906101000a900460ff16612bf3576040517f08c379a0000000000000000000000000000000000000000000000000000000008152600401612bea906141f1565b60405180910390fd5b6000600460008473ffffffffffffffffffffffffffffffffffffffff1673ffffffffffffffffffffffffffffffffffffffff1681526020019081526020016000208054905090506000600960008573ffffffffffffffffffffffffffffffffffffffff1673ffffffffffffffffffffffffffffffffffffffff16815260200190815260200160002060009054906101000a900460ff16612c94576000612c97565b60145b60ff1682600a612ca79190614a2a565b612cb19190613e97565b905060648111612ccd57806064612cc89190613cf7565b612cd0565b60005b92505050919050565b6000602052806000526040600020600091509050806000018054612cfc90613e66565b80601f0160208091040260200160405190810160405280929190818152602001828054612d2890613e66565b8015612d755780601f10612d4a57610100808354040283529160200191612d75565b820191906000526020600020905b815481529060010190602001808311612d5857829003601f168201915b505050505090806001018054612d8a90613e66565b80601f0160208091040260200160405190810160405280929190818152602001828054612db690613e66565b8015612e035780601f10612dd857610100808354040283529160200191612e03565b820191906000526020600020905b815481529060010190602001808311612de657829003601f168201915b5050505050908060020154908060030160009054906101000a900460ff16905084565b600260003373ffffffffffffffffffffffffffffffffffffffff1673ffffffffffffffffffffffffffffffffffffffff16815260200190815260200160002060010160009054906101000a900460ff1615612eb6576040517f08c379a0000000000000000000000000000000000000000000000000000000008152600401612ead90614ab8565b60405180910390fd5b604051806040016040528082815260200160011515815250600260003373ffffffffffffffffffffffffffffffffffffffff1673ffffffffffffffffffffffffffffffffffffffff1681526020019081526020016000206000820151816000019081612f229190614504565b5060208201518160010160006101000a81548160ff021916908315150217905550905050600c339080600181540180825580915050600190039060005260206000200160009091909190916101000a81548173ffffffffffffffffffffffffffffffffffffffff021916908373ffffffffffffffffffffffffffffffffffffffff1602179055507f1b804782f82499dcf0a7180ceb72b08031b2f4e9a3aaf765bf3a5b360de400c13382604051612fda929190613ecb565b60405180910390a150565b600080429050610e10600860008573ffffffffffffffffffffffffffffffffffffffff1673ffffffffffffffffffffffffffffffffffffffff168152602001908152602001600020546130389190613e97565b811015915050919050565b6000803373ffffffffffffffffffffffffffffffffffffffff1673ffffffffffffffffffffffffffffffffffffffff16815260200190815260200160002060030160009054906101000a900460ff166130d1576040517f08c379a00000000000000000000000000000000000000000000000000000000081526004016130c890614808565b60405180910390fd5b600560008373ffffffffffffffffffffffffffffffffffffffff1673ffffffffffffffffffffffffffffffffffffffff16815260200190815260200160002060003373ffffffffffffffffffffffffffffffffffffffff1673ffffffffffffffffffffffffffffffffffffffff16815260200190815260200160002060009054906101000a900460ff1661319a576040517f08c379a000000000000000000000000000000000000000000000000000000000815260040161319190614b4a565b60405180910390fd5b60008151116131de576040517f08c379a00000000000000000000000000000000000000000000000000000000081526004016131d590614bb6565b60405180910390fd5b600760008373ffffffffffffffffffffffffffffffffffffffff1673ffffffffffffffffffffffffffffffffffffffff1681526020019081526020016000208190806001815401808255809150506001900390600052602060002001600090919091909150908161324f9190614504565b507fe2cf7446a11cbcd14cd99ea3a1bb77fb7653a64f4064d660140b5100d001e13c33838360405161328393929190614bd6565b60405180910390a16000600660008473ffffffffffffffffffffffffffffffffffffffff1673ffffffffffffffffffffffffffffffffffffffff16815260200190815260200160002080548060200260200160405190810160405280929190818152602001828054801561334c57602002820191906000526020600020905b8160009054906101000a900473ffffffffffffffffffffffffffffffffffffffff1673ffffffffffffffffffffffffffffffffffffffff1681526020019060010190808311613302575b5050505050905060005b81518110156133c7577f2ce302443df202e755c7cfe3a081b971183cf4eb1504cb836eb256562e6275bb8483838151811061339457613393613c99565b5b6020026020010151856040516133ac93929190614bd6565b60405180910390a180806133bf90613d83565b915050613356565b50505050565b6000600a80549050905090565b6000604051905090565b600080fd5b600080fd5b600073ffffffffffffffffffffffffffffffffffffffff82169050919050565b6000613419826133ee565b9050919050565b6134298161340e565b811461343457600080fd5b50565b60008135905061344681613420565b92915050565b600060208284031215613462576134616133e4565b5b600061347084828501613437565b91505092915050565b600081519050919050565b600082825260208201905092915050565b6000819050602082019050919050565b600081519050919050565b600082825260208201905092915050565b60005b838110156134df5780820151818401526020810190506134c4565b60008484015250505050565b6000601f19601f8301169050919050565b6000613507826134a5565b61351181856134b0565b93506135218185602086016134c1565b61352a816134eb565b840191505092915050565b600061354183836134fc565b905092915050565b6000602082019050919050565b600061356182613479565b61356b8185613484565b93508360208202850161357d85613495565b8060005b858110156135b9578484038952815161359a8582613535565b94506135a583613549565b925060208a01995050600181019050613581565b50829750879550505050505092915050565b600060208201905081810360008301526135e58184613556565b905092915050565b600080fd5b600080fd5b7f4e487b7100000000000000000000000000000000000000000000000000000000600052604160045260246000fd5b61362f826134eb565b810181811067ffffffffffffffff8211171561364e5761364d6135f7565b5b80604052505050565b60006136616133da565b905061366d8282613626565b919050565b600067ffffffffffffffff82111561368d5761368c6135f7565b5b613696826134eb565b9050602081019050919050565b82818337600083830152505050565b60006136c56136c084613672565b613657565b9050828152602081018484840111156136e1576136e06135f2565b5b6136ec8482856136a3565b509392505050565b600082601f830112613709576137086135ed565b5b81356137198482602086016136b2565b91505092915050565b600060208284031215613738576137376133e4565b5b600082013567ffffffffffffffff811115613756576137556133e9565b5b613762848285016136f4565b91505092915050565b6000819050919050565b61377e8161376b565b811461378957600080fd5b50565b60008135905061379b81613775565b92915050565b600080604083850312156137b8576137b76133e4565b5b60006137c685828601613437565b92505060206137d78582860161378c565b9150509250929050565b6137ea8161340e565b82525050565b600060208201905061380560008301846137e1565b92915050565b6138148161376b565b82525050565b600060208201905061382f600083018461380b565b92915050565b60008060006060848603121561384e5761384d6133e4565b5b600084013567ffffffffffffffff81111561386c5761386b6133e9565b5b613878868287016136f4565b935050602084013567ffffffffffffffff811115613899576138986133e9565b5b6138a5868287016136f4565b92505060406138b68682870161378c565b9150509250925092565b600081519050919050565b600082825260208201905092915050565b6000819050602082019050919050565b6138f58161340e565b82525050565b600061390783836138ec565b60208301905092915050565b6000602082019050919050565b600061392b826138c0565b61393581856138cb565b9350613940836138dc565b8060005b8381101561397157815161395888826138fb565b975061396383613913565b925050600181019050613944565b5085935050505092915050565b600060208201905081810360008301526139988184613920565b905092915050565b600080604083850312156139b7576139b66133e4565b5b60006139c585828601613437565b92505060206139d685828601613437565b9150509250929050565b60008115159050919050565b6139f5816139e0565b82525050565b6000602082019050613a1060008301846139ec565b92915050565b613a1f816139e0565b8114613a2a57600080fd5b50565b600081359050613a3c81613a16565b92915050565b600060208284031215613a5857613a576133e4565b5b6000613a6684828501613a2d565b91505092915050565b600082825260208201905092915050565b6000613a8b826134a5565b613a958185613a6f565b9350613aa58185602086016134c1565b613aae816134eb565b840191505092915050565b60006040820190508181036000830152613ad38185613a80565b9050613ae260208301846139ec565b9392505050565b600080600060608486031215613b0257613b016133e4565b5b6000613b1086828701613437565b9350506020613b2186828701613437565b925050604084013567ffffffffffffffff811115613b4257613b416133e9565b5b613b4e868287016136f4565b9150509250925092565b60006080820190508181036000830152613b728187613a80565b90508181036020830152613b868186613a80565b9050613b95604083018561380b565b613ba260608301846139ec565b95945050505050565b60008060408385031215613bc257613bc16133e4565b5b6000613bd085828601613437565b925050602083013567ffffffffffffffff811115613bf157613bf06133e9565b5b613bfd858286016136f4565b9150509250929050565b7f43616c6c6572206973206e6f742061207265676973746572656420706174696560008201527f6e74000000000000000000000000000000000000000000000000000000000000602082015250565b6000613c63602283613a6f565b9150613c6e82613c07565b604082019050919050565b60006020820190508181036000830152613c9281613c56565b9050919050565b7f4e487b7100000000000000000000000000000000000000000000000000000000600052603260045260246000fd5b7f4e487b7100000000000000000000000000000000000000000000000000000000600052601160045260246000fd5b6000613d028261376b565b9150613d0d8361376b565b9250828203905081811115613d2557613d24613cc8565b5b92915050565b7f4e487b7100000000000000000000000000000000000000000000000000000000600052603160045260246000fd5b6000604082019050613d6f60008301856137e1565b613d7c60208301846137e1565b9392505050565b6000613d8e8261376b565b91507fffffffffffffffffffffffffffffffffffffffffffffffffffffffffffffffff8203613dc057613dbf613cc8565b5b600182019050919050565b7f46616d696c79206d656d626572206e6f7420666f756e64000000000000000000600082015250565b6000613e01601783613a6f565b9150613e0c82613dcb565b602082019050919050565b60006020820190508181036000830152613e3081613df4565b9050919050565b7f4e487b7100000000000000000000000000000000000000000000000000000000600052602260045260246000fd5b60006002820490506001821680613e7e57607f821691505b602082108103613e9157613e90613e37565b5b50919050565b6000613ea28261376b565b9150613ead8361376b565b9250828201905080821115613ec557613ec4613cc8565b5b92915050565b6000604082019050613ee060008301856137e1565b8181036020830152613ef28184613a80565b90509392505050565b7f4865616c746820646174612073656e7400000000000000000000000000000000600082015250565b6000613f31601083613a6f565b9150613f3c82613efb565b602082019050919050565b6000606082019050613f5c60008301856137e1565b613f6960208301846137e1565b8181036040830152613f7a81613f24565b90509392505050565b7f46616d696c79206d656d626572206973206e6f74207265676973746572656400600082015250565b6000613fb9601f83613a6f565b9150613fc482613f83565b602082019050919050565b60006020820190508181036000830152613fe881613fac565b9050919050565b7f457870657274206973206e6f742061737369676e656420746f2074686973207060008201527f617469656e740000000000000000000000000000000000000000000000000000602082015250565b600061404b602683613a6f565b915061405682613fef565b604082019050919050565b6000602082019050818103600083015261407a8161403e565b9050919050565b7f43616c6c6572206973206e6f742061207265676973746572656420726573656160008201527f72636820696e7374697475746500000000000000000000000000000000000000602082015250565b60006140dd602d83613a6f565b91506140e882614081565b604082019050919050565b6000602082019050818103600083015261410c816140d0565b9050919050565b7f50617469656e7420686173206e6f7420676976656e20636f6e73656e7420746f60008201527f2073686172652064617461207769746820522e492e0000000000000000000000602082015250565b600061416f603583613a6f565b915061417a82614113565b604082019050919050565b6000602082019050818103600083015261419e81614162565b9050919050565b7f50617469656e74206973206e6f74207265676973746572656400000000000000600082015250565b60006141db601983613a6f565b91506141e6826141a5565b602082019050919050565b6000602082019050818103600083015261420a816141ce565b9050919050565b600081905092915050565b50565b600061422c600083614211565b91506142378261421c565b600082019050919050565b600061424d8261421f565b9150819050919050565b7f5472616e73666572206661696c65640000000000000000000000000000000000600082015250565b600061428d600f83613a6f565b915061429882614257565b602082019050919050565b600060208201905081810360008301526142bc81614280565b9050919050565b60006040820190506142d860008301856137e1565b6142e5602083018461380b565b9392505050565b7f45787065727420697320616c7265616479207265676973746572656400000000600082015250565b6000614322601c83613a6f565b915061432d826142ec565b602082019050919050565b6000602082019050818103600083015261435181614315565b9050919050565b60008190508160005260206000209050919050565b60006020601f8301049050919050565b600082821b905092915050565b6000600883026143ba7fffffffffffffffffffffffffffffffffffffffffffffffffffffffffffffffff8261437d565b6143c4868361437d565b95508019841693508086168417925050509392505050565b6000819050919050565b60006144016143fc6143f78461376b565b6143dc565b61376b565b9050919050565b6000819050919050565b61441b836143e6565b61442f61442782614408565b84845461438a565b825550505050565b600090565b614444614437565b61444f818484614412565b505050565b5b818110156144735761446860008261443c565b600181019050614455565b5050565b601f8211156144b85761448981614358565b6144928461436d565b810160208510156144a1578190505b6144b56144ad8561436d565b830182614454565b50505b505050565b600082821c905092915050565b60006144db600019846008026144bd565b1980831691505092915050565b60006144f483836144ca565b9150826002028217905092915050565b61450d826134a5565b67ffffffffffffffff811115614526576145256135f7565b5b6145308254613e66565b61453b828285614477565b600060209050601f83116001811461456e576000841561455c578287015190505b61456685826144e8565b8655506145ce565b601f19841661457c86614358565b60005b828110156145a45784890151825560018201915060208501945060208101905061457f565b868310156145c157848901516145bd601f8916826144ca565b8355505b6001600288020188555050505b505050505050565b60006080820190506145eb60008301876137e1565b81810360208301526145fd8186613a80565b905081810360408301526146118185613a80565b9050614620606083018461380b565b95945050505050565b7f457870657274206973206e6f7420726567697374657265640000000000000000600082015250565b600061465f601883613a6f565b915061466a82614629565b602082019050919050565b6000602082019050818103600083015261468e81614652565b9050919050565b7f45787065727420697320616c7265616479206164646564000000000000000000600082015250565b60006146cb601783613a6f565b91506146d682614695565b602082019050919050565b600060208201905081810360008301526146fa816146be565b9050919050565b600060408201905061471660008301856137e1565b61472360208301846139ec565b9392505050565b7f50617469656e7420697320616c72656164792072656769737465726564000000600082015250565b6000614760601d83613a6f565b915061476b8261472a565b602082019050919050565b6000602082019050818103600083015261478f81614753565b9050919050565b7f43616c6c6572206973206e6f7420612072656769737465726564206865616c7460008201527f6863617265206578706572740000000000000000000000000000000000000000602082015250565b60006147f2602c83613a6f565b91506147fd82614796565b604082019050919050565b60006020820190508181036000830152614821816147e5565b9050919050565b7f596f7520617265206e6f7420617574686f72697a656420746f2073656e64206460008201527f61746120666f7220746869732070617469656e74000000000000000000000000602082015250565b6000614884603483613a6f565b915061488f82614828565b604082019050919050565b600060208201905081810360008301526148b381614877565b9050919050565b7f526573656172636820696e73746974757465206973206e6f742072656769737460008201527f6572656400000000000000000000000000000000000000000000000000000000602082015250565b6000614916602483613a6f565b9150614921826148ba565b604082019050919050565b6000602082019050818103600083015261494581614909565b9050919050565b600060808201905061496160008301876137e1565b61496e60208301866137e1565b61497b60408301856137e1565b818103606083015261498d8184613a80565b905095945050505050565b7f46616d696c79206d656d62657220697320616c7265616479207265676973746560008201527f7265640000000000000000000000000000000000000000000000000000000000602082015250565b60006149f4602383613a6f565b91506149ff82614998565b604082019050919050565b60006020820190508181036000830152614a23816149e7565b9050919050565b6000614a358261376b565b9150614a408361376b565b9250828202614a4e8161376b565b91508282048414831517614a6557614a64613cc8565b5b5092915050565b7f496e7374697475746520697320616c7265616479207265676973746572656400600082015250565b6000614aa2601f83613a6f565b9150614aad82614a6c565b602082019050919050565b60006020820190508181036000830152614ad181614a95565b9050919050565b7f596f7520617265206e6f7420617574686f72697a656420746f2073656e64206160008201527f206d65737361676520746f20746869732070617469656e740000000000000000602082015250565b6000614b34603883613a6f565b9150614b3f82614ad8565b604082019050919050565b60006020820190508181036000830152614b6381614b27565b9050919050565b7f4d6573736167652063616e6e6f7420626520656d707479000000000000000000600082015250565b6000614ba0601783613a6f565b9150614bab82614b6a565b602082019050919050565b60006020820190508181036000830152614bcf81614b93565b9050919050565b6000606082019050614beb60008301866137e1565b614bf860208301856137e1565b8181036040830152614c0a8184613a80565b905094935050505056fe52656d696e6465723a20506c656173652073656e6420796f7572206865616c746820646174612ea2646970667358221220d9b76377910b6c56d6f5e934990cec6901b21b97fafe7f70dc5ac631d3e9a70064736f6c63430008140033",
  "linkReferences": {},
  "deployedLinkReferences": {}
}